{
  "transactions": [
    {
      "hash": "0x167ee5e366e12f9809779b66ad851ac36f80952a47b535c3bab7fea7ed9bf020",
      "transactionType": "CREATE",
      "contractName": "HealthCheckAccountant",
      "contractAddress": "0x29ba83fe2db1039ef171dd40c8e1f0106ecc171a",
      "function": null,
      "arguments": [
        "0xf39Fd6e51aad88F6F4ce6aB8827279cffFb92266",
        "0x70997970C51812dc3A010C7d01b50e0d17dc79C8",
        "0",
        "0",
        "0",
        "10000",
        "20000",
        "1"
      ],
      "transaction": {
        "from": "0xf39fd6e51aad88f6f4ce6ab8827279cfffb92266",
        "gas": "0x290b09",
        "value": "0x0",
        "input": "0x60806040523480156200001157600080fd5b506040516200270838038062002708833981016040819052620000349162000372565b6001600160a01b0388166200007f5760405162461bcd60e51b815260206004820152600c60248201526b5a45524f204144445245535360a01b60448201526064015b60405180910390fd5b6001600160a01b038716620000c65760405162461bcd60e51b815260206004820152600c60248201526b5a45524f204144445245535360a01b604482015260640162000076565b600180546001600160a01b03808b166001600160a01b03199283161790925560028054928a16929091169190911790556200010686868686868662000114565b50505050505050506200041a565b60c861ffff871611156200016b5760405162461bcd60e51b815260206004820152601860248201527f6d616e6167656d656e7420666565207468726573686f6c640000000000000000604482015260640162000076565b61138861ffff86161115620001c35760405162461bcd60e51b815260206004820152601960248201527f706572666f726d616e636520666565207468726573686f6c6400000000000000604482015260640162000076565b6127108161ffff161115620002065760405162461bcd60e51b81526020600482015260086024820152670e8dede40d0d2ced60c31b604482015260640162000076565b6040805160c0808201835261ffff89811680845289821660208086018290528a84168688018190528a851660608089018290528b87166080808b018290528c891660a09b8c018190526005805463ffffffff1916909917620100009098029790971763ffffffff60201b191664010000000090950261ffff60301b19169490941766010000000000009093029290921763ffffffff60401b19166801000000000000000090920261ffff60501b1916919091176a0100000000000000000000909402939093179384905587518486168152601085901c8616818401529184901c851682890152603084901c8516928201929092529582901c83169086015260501c16918301919091527ff3ff5bcf8ed3012f7176c6f818fefe02724b1948c98c25f8ff0339fc74c11b8c910160405180910390a1505050505050565b80516001600160a01b03811681146200035a57600080fd5b919050565b805161ffff811681146200035a57600080fd5b600080600080600080600080610100898b0312156200039057600080fd5b6200039b8962000342565b9750620003ab60208a0162000342565b9650620003bb60408a016200035f565b9550620003cb60608a016200035f565b9450620003db60808a016200035f565b9350620003eb60a08a016200035f565b9250620003fb60c08a016200035f565b91506200040b60e08a016200035f565b90509295985092959890939650565b6122de806200042a6000396000f3fe608060405234801561001057600080fd5b50600436106101c45760003560e01c80639b3b6955116100f9578063d0fb020311610097578063e2a85ce411610071578063e2a85ce4146104b9578063e74b981b146104cc578063f94c53c7146104df578063fb932108146104e757600080fd5b8063d0fb020314610473578063d8609c5b14610486578063de1eb9a31461049957600080fd5b8063b53d68e5116100d3578063b53d68e514610419578063b543503e14610422578063c7c504b914610435578063ceb68c231461046057600080fd5b80639b3b6955146103935780639e09ed5f146103a6578063a622ee7c146103e657600080fd5b806363453ae11161016657806382e4dd6f1161014057806382e4dd6f1461032a5780638a4adf2414610345578063921f8a8f14610358578063962941781461038057600080fd5b806363453ae11461027157806367bee7e9146102845780637b5d7b651461029757600080fd5b8063256b5a02116101a2578063256b5a021461022157806346904840146102345780635783fe39146102475780635cece03a1461025e57600080fd5b8063015cf150146101c957806303579dca146101f957806324be66281461020e575b600080fd5b6004546101dc906001600160a01b031681565b6040516001600160a01b0390911681526020015b60405180910390f35b61020c610207366004611e6a565b6104fa565b005b61020c61021c366004611e8e565b61056b565b61020c61022f366004611e6a565b6105f8565b6002546101dc906001600160a01b031681565b61025060005481565b6040519081526020016101f0565b61020c61026c366004611ea7565b6106b9565b61020c61027f366004611e6a565b61072d565b61020c610292366004611e6a565b61079b565b6102ed6102a5366004611e6a565b60076020526000908152604090205461ffff80821691620100008104821691600160201b8204811691600160301b8104821691600160401b8204811691600160501b90041686565b6040805161ffff978816815295871660208701529386169385019390935290841660608401528316608083015290911660a082015260c0016101f0565b61033260c881565b60405161ffff90911681526020016101f0565b6003546101dc906001600160a01b031681565b61036b610366366004611ee0565b610860565b604080519283526020830191909152016101f0565b61020c61038e366004611f15565b610d88565b61020c6103a1366004611e6a565b610e18565b6005546102ed9061ffff80821691620100008104821691600160201b8204811691600160301b8104821691600160401b8204811691600160501b90041686565b6104096103f4366004611e6a565b60066020526000908152604090205460ff1681565b60405190151581526020016101f0565b61033261138881565b61020c610430366004611e6a565b610eaf565b610409610443366004611e6a565b6001600160a01b0316600090815260086020526040902054151590565b61020c61046e366004611e6a565b610f01565b6001546101dc906001600160a01b031681565b61020c610494366004611f53565b6110ac565b6104ac6104a7366004611e6a565b611389565b6040516101f09190611fdb565b61020c6104c736600461202f565b6114b3565b61020c6104da366004611e6a565b6114d1565b61020c611570565b61020c6104f5366004611f15565b611615565b6040516370a0823160e01b81523060048201526105689082906001600160a01b038216906370a0823190602401602060405180830381865afa158015610544573d6000803e3d6000fd5b505050506040513d601f19601f8201168201806040525081019061038e91906120a3565b50565b610573611672565b6127108111156105bd5760405162461bcd60e51b815260206004820152601060248201526f686967686572207468616e203130302560801b60448201526064015b60405180910390fd5b60008190556040518181527f18182e268b61d2aada98f23ade23b0ea133d5b0b6712dbfa682dc6da29941c229060200160405180910390a150565b6106006116bd565b6001600160a01b03811660009081526006602052604090205460ff16156106595760405162461bcd60e51b815260206004820152600d60248201526c185b1c9958591e481859191959609a1b60448201526064016105b4565b6001600160a01b03811660008181526006602052604090819020805460ff1916600190811790915590517fce96c4db32686d3f0011df1abea0ab6c5794b848868dcbece79961fef7e8198d916106ae916120bc565b60405180910390a250565b6106c1611672565b6001600160a01b03821660009081526006602052604090205460ff166106f95760405162461bcd60e51b81526004016105b4906120e4565b6001600160a01b0391821660009081526009602090815260408083209390941682529190915220805460ff19166001179055565b6040516370a0823160e01b81523060048201526105689082906001600160a01b038216906370a0823190602401602060405180830381865afa158015610777573d6000803e3d6000fd5b505050506040513d601f19601f820116820180604052508101906104f591906120a3565b6107a3611672565b6001600160a01b03811660009081526008602052604081205490036107ff5760405162461bcd60e51b8152602060048201526012602482015271139bc818dd5cdd1bdb481999595cc81cd95d60721b60448201526064016105b4565b6001600160a01b038116600081815260076020908152604080832080546bffffffffffffffffffffffff191690556008909152808220829055517f3e6648a1d6918f893e09d7f2a385f04bdafbf8ad899b255b7f40e02c967b55879190a250565b60008061086b61171d565b6040805160c08101825260008082526020808301829052828401829052606083018290526080830182905260a0830182905233825260089052919091205415610922575033600090815260076020908152604091829020825160c081018452905461ffff8082168352620100008204811693830193909352600160201b8104831693820193909352600160301b830482166060820152600160401b830482166080820152600160501b9092041660a0820152610981565b506040805160c08101825260055461ffff808216835262010000820481166020840152600160201b8204811693830193909352600160301b810483166060830152600160401b810483166080830152600160501b900490911660a08201525b6040516339ebf82360e01b81526001600160a01b038716600482015260009033906339ebf82390602401608060405180830381865afa1580156109c8573d6000803e3d6000fd5b505050506040513d601f19601f820116820180604052508101906109ec919061210d565b825190915061ffff1615610a51576000816020015142610a0c9190612197565b90506301e18558612710846000015161ffff16838560400151610a2f91906121aa565b610a3991906121aa565b610a4391906121c1565b610a4d91906121c1565b9450505b8515610b57573360009081526009602090815260408083206001600160a01b038b16845290915290205460ff1615610ab3573360009081526009602090815260408083206001600160a01b038b1684529091529020805460ff19169055610b25565b608082015161ffff1615610b2557612710826080015161ffff168260400151610adc91906121aa565b610ae691906121c1565b861115610b255760405162461bcd60e51b815260206004820152600d60248201526c3a37b79036bab1b41033b0b4b760991b60448201526064016105b4565b612710826020015161ffff1687610b3c91906121aa565b610b4691906121c1565b610b5090856121e3565b9350610d43565b3360009081526009602090815260408083206001600160a01b038b16845290915290205460ff1615610bb3573360009081526009602090815260408083206001600160a01b038b1684529091529020805460ff19169055610c29565b6127108260a0015161ffff161015610c29576127108260a0015161ffff168260400151610be091906121aa565b610bea91906121c1565b851115610c295760405162461bcd60e51b815260206004820152600d60248201526c746f6f206d756368206c6f737360981b60448201526064016105b4565b604082015161ffff1615610d43576000336001600160a01b03166338d52e0f6040518163ffffffff1660e01b8152600401602060405180830381865afa158015610c77573d6000803e3d6000fd5b505050506040513d601f19601f82011682018060405250810190610c9b91906121f6565b9050610d2e612710846040015161ffff1688610cb791906121aa565b610cc191906121c1565b6040516370a0823160e01b81523060048201526001600160a01b038416906370a0823190602401602060405180830381865afa158015610d05573d6000803e3d6000fd5b505050506040513d601f19601f82011682018060405250810190610d2991906120a3565b61174c565b93508315610d4157610d41338286611766565b505b606082015161ffff1615610d7e57610d7b612710836060015161ffff1688610d6b91906121aa565b610d7591906121c1565b8561174c565b93505b5050935093915050565b610d90611672565b600054604051639f40a7b360e01b8152600481018390523060248201819052604482015260648101919091526001600160a01b03831690639f40a7b3906084016020604051808303816000875af1158015610def573d6000803e3d6000fd5b505050506040513d601f19601f82011682018060405250810190610e1391906120a3565b505050565b610e20611672565b6001600160a01b038116610e655760405162461bcd60e51b815260206004820152600c60248201526b5a45524f204144445245535360a01b60448201526064016105b4565b600480546001600160a01b0319166001600160a01b0383169081179091556040517fa839c45565e8a86de41783841928f4acde049c2b7160f0ea4d4698220c5af61b90600090a250565b610eb7611672565b600380546001600160a01b0319166001600160a01b0383169081179091556040517fda833a9122ed0b27d5c78c99315bb3758f1b77fb240db484a67fd0f286b263e590600090a250565b610f096116bd565b6001600160a01b03811660009081526006602052604090205460ff16610f5d5760405162461bcd60e51b81526020600482015260096024820152681b9bdd08185919195960ba1b60448201526064016105b4565b6000816001600160a01b03166338d52e0f6040518163ffffffff1660e01b8152600401602060405180830381865afa158015610f9d573d6000803e3d6000fd5b505050506040513d601f19601f82011682018060405250810190610fc191906121f6565b604051636eb1769f60e11b81523060048201526001600160a01b0384811660248301529192509082169063dd62ed3e90604401602060405180830381865afa158015611011573d6000803e3d6000fd5b505050506040513d601f19601f8201168201806040525081019061103591906120a3565b1561104f5761104f6001600160a01b038216836000611804565b6001600160a01b03821660008181526006602052604090819020805460ff19169055517fce96c4db32686d3f0011df1abea0ab6c5794b848868dcbece79961fef7e8198d906110a0906002906120bc565b60405180910390a25050565b6110b4611672565b6001600160a01b03871660009081526006602052604090205460ff166110ec5760405162461bcd60e51b81526004016105b4906120e4565b60c861ffff8716111561113c5760405162461bcd60e51b81526020600482015260186024820152771b585b9859d95b595b9d08199959481d1a1c995cda1bdb1960421b60448201526064016105b4565b61138861ffff8616111561118e5760405162461bcd60e51b81526020600482015260196024820152781c195c999bdc9b585b98d948199959481d1a1c995cda1bdb19603a1b60448201526064016105b4565b6127108161ffff1611156111cf5760405162461bcd60e51b81526020600482015260086024820152670e8dede40d0d2ced60c31b60448201526064016105b4565b60006040518060c001604052808861ffff1681526020018761ffff1681526020018661ffff1681526020018561ffff1681526020018461ffff1681526020018361ffff16815250905080600760008a6001600160a01b03166001600160a01b0316815260200190815260200160002060008201518160000160006101000a81548161ffff021916908361ffff16021790555060208201518160000160026101000a81548161ffff021916908361ffff16021790555060408201518160000160046101000a81548161ffff021916908361ffff16021790555060608201518160000160066101000a81548161ffff021916908361ffff16021790555060808201518160000160086101000a81548161ffff021916908361ffff16021790555060a082015181600001600a6101000a81548161ffff021916908361ffff1602179055509050506001600860008a6001600160a01b03166001600160a01b0316815260200190815260200160002081905550876001600160a01b03167f2acfa0dc84b66a7e2bc0265c657439bea3093a02c27de5a529fe5e3c0995c989826040516113779190611fdb565b60405180910390a25050505050505050565b6040805160c08101825260008082526020808301829052828401829052606083018290526080830182905260a083018290526001600160a01b03851682526008905291909120541561144f57506001600160a01b0316600090815260076020908152604091829020825160c081018452905461ffff8082168352620100008204811693830193909352600160201b8104831693820193909352600160301b830482166060820152600160401b830482166080820152600160501b9092041660a082015290565b506040805160c08101825260055461ffff808216835262010000820481166020840152600160201b8204811693830193909352600160301b810483166060830152600160401b810483166080830152600160501b900490911660a08201525b919050565b6114bb611672565b6114c986868686868661194c565b505050505050565b6114d9611672565b6001600160a01b03811661151e5760405162461bcd60e51b815260206004820152600c60248201526b5a45524f204144445245535360a01b60448201526064016105b4565b600280546001600160a01b038381166001600160a01b0319831681179093556040519116919082907fb03f92c8c7ac39710f28b146f754650929499d599a66d51423cbd7f3ceb9aee390600090a35050565b6004546001600160a01b031633146115c35760405162461bcd60e51b81526020600482015260166024820152753737ba10333aba3ab932903332b29036b0b730b3b2b960511b60448201526064016105b4565b60048054600180546001600160a01b03199081166001600160a01b0384161790915516905560405133907f772ddcfc9a0f3b1401c0f60000a81999005d9d593b71bb67707c5f326eb7c94d90600090a2565b61161d611b64565b600254611637906001600160a01b03848116911683611bc0565b816001600160a01b03167f962bc326c7b063c70721a63687e0e19450155f93c58eca94769746c0cfb02c5d826040516110a091815260200190565b6001546001600160a01b031633146116bb5760405162461bcd60e51b815260206004820152600c60248201526b10b332b29036b0b730b3b2b960a11b60448201526064016105b4565b565b6001546001600160a01b03163314806116e057506003546001600160a01b031633145b6116bb5760405162461bcd60e51b815260206004820152600e60248201526d10bb30bab63a1036b0b730b3b2b960911b60448201526064016105b4565b3360009081526006602052604090205460ff166116bb5760405162461bcd60e51b81526004016105b4906120e4565b600081831061175b578161175d565b825b90505b92915050565b604051636eb1769f60e11b81523060048201526001600160a01b03848116602483015282919084169063dd62ed3e90604401602060405180830381865afa1580156117b5573d6000803e3d6000fd5b505050506040513d601f19601f820116820180604052508101906117d991906120a3565b1015610e13576117f46001600160a01b038316846000611804565b610e136001600160a01b03831684835b80158061187e5750604051636eb1769f60e11b81523060048201526001600160a01b03838116602483015284169063dd62ed3e90604401602060405180830381865afa158015611858573d6000803e3d6000fd5b505050506040513d601f19601f8201168201806040525081019061187c91906120a3565b155b6118e95760405162461bcd60e51b815260206004820152603660248201527f5361666545524332303a20617070726f76652066726f6d206e6f6e2d7a65726f60448201527520746f206e6f6e2d7a65726f20616c6c6f77616e636560501b60648201526084016105b4565b6040516001600160a01b038316602482015260448101829052610e1390849063095ea7b360e01b906064015b60408051601f198184030181529190526020810180516001600160e01b03166001600160e01b031990931692909217909152611bf0565b60c861ffff8716111561199c5760405162461bcd60e51b81526020600482015260186024820152771b585b9859d95b595b9d08199959481d1a1c995cda1bdb1960421b60448201526064016105b4565b61138861ffff861611156119ee5760405162461bcd60e51b81526020600482015260196024820152781c195c999bdc9b585b98d948199959481d1a1c995cda1bdb19603a1b60448201526064016105b4565b6127108161ffff161115611a2f5760405162461bcd60e51b81526020600482015260086024820152670e8dede40d0d2ced60c31b60448201526064016105b4565b6040805160c0808201835261ffff89811680845289821660208086018290528a84168688018190528a851660608089018290528b87166080808b018290528c891660a09b8c018190526005805463ffffffff1916909917620100009098029790971767ffffffff000000001916600160201b90950267ffff000000000000191694909417600160301b909302929092176bffffffff00000000000000001916600160401b90920261ffff60501b191691909117600160501b909402939093179384905587518486168152601085901c8616818401529184901c851682890152603084901c8516928201929092529582901c83169086015260501c16918301919091527ff3ff5bcf8ed3012f7176c6f818fefe02724b1948c98c25f8ff0339fc74c11b8c910160405180910390a1505050505050565b6002546001600160a01b0316331480611b8757506001546001600160a01b031633145b6116bb5760405162461bcd60e51b815260206004820152600a602482015269085c9958da5c1a595b9d60b21b60448201526064016105b4565b6040516001600160a01b038316602482015260448101829052610e1390849063a9059cbb60e01b90606401611915565b6000611c45826040518060400160405280602081526020017f5361666545524332303a206c6f772d6c6576656c2063616c6c206661696c6564815250856001600160a01b0316611cc59092919063ffffffff16565b9050805160001480611c66575080806020019051810190611c669190612213565b610e135760405162461bcd60e51b815260206004820152602a60248201527f5361666545524332303a204552433230206f7065726174696f6e20646964206e6044820152691bdd081cdd58d8d9595960b21b60648201526084016105b4565b6060611cd48484600085611cdc565b949350505050565b606082471015611d3d5760405162461bcd60e51b815260206004820152602660248201527f416464726573733a20696e73756666696369656e742062616c616e636520666f6044820152651c8818d85b1b60d21b60648201526084016105b4565b600080866001600160a01b03168587604051611d599190612259565b60006040518083038185875af1925050503d8060008114611d96576040519150601f19603f3d011682016040523d82523d6000602084013e611d9b565b606091505b5091509150611dac87838387611db7565b979650505050505050565b60608315611e26578251600003611e1f576001600160a01b0385163b611e1f5760405162461bcd60e51b815260206004820152601d60248201527f416464726573733a2063616c6c20746f206e6f6e2d636f6e747261637400000060448201526064016105b4565b5081611cd4565b611cd48383815115611e3b5781518083602001fd5b8060405162461bcd60e51b81526004016105b49190612275565b6001600160a01b038116811461056857600080fd5b600060208284031215611e7c57600080fd5b8135611e8781611e55565b9392505050565b600060208284031215611ea057600080fd5b5035919050565b60008060408385031215611eba57600080fd5b8235611ec581611e55565b91506020830135611ed581611e55565b809150509250929050565b600080600060608486031215611ef557600080fd5b8335611f0081611e55565b95602085013595506040909401359392505050565b60008060408385031215611f2857600080fd5b8235611f3381611e55565b946020939093013593505050565b803561ffff811681146114ae57600080fd5b600080600080600080600060e0888a031215611f6e57600080fd5b8735611f7981611e55565b9650611f8760208901611f41565b9550611f9560408901611f41565b9450611fa360608901611f41565b9350611fb160808901611f41565b9250611fbf60a08901611f41565b9150611fcd60c08901611f41565b905092959891949750929550565b600060c08201905061ffff8084511683528060208501511660208401528060408501511660408401528060608501511660608401528060808501511660808401528060a08501511660a08401525092915050565b60008060008060008060c0878903121561204857600080fd5b61205187611f41565b955061205f60208801611f41565b945061206d60408801611f41565b935061207b60608801611f41565b925061208960808801611f41565b915061209760a08801611f41565b90509295509295509295565b6000602082840312156120b557600080fd5b5051919050565b60208101600383106120de57634e487b7160e01b600052602160045260246000fd5b91905290565b6020808252600f908201526e1d985d5b1d081b9bdd081859191959608a1b604082015260600190565b60006080828403121561211f57600080fd5b6040516080810181811067ffffffffffffffff8211171561215057634e487b7160e01b600052604160045260246000fd5b8060405250825181526020830151602082015260408301516040820152606083015160608201528091505092915050565b634e487b7160e01b600052601160045260246000fd5b8181038181111561176057611760612181565b808202811582820484141761176057611760612181565b6000826121de57634e487b7160e01b600052601260045260246000fd5b500490565b8082018082111561176057611760612181565b60006020828403121561220857600080fd5b8151611e8781611e55565b60006020828403121561222557600080fd5b81518015158114611e8757600080fd5b60005b83811015612250578181015183820152602001612238565b50506000910152565b6000825161226b818460208701612235565b9190910192915050565b6020815260008251806020840152612294816040850160208701612235565b601f01601f1916919091016040019291505056fea2646970667358221220dcf8509ff2fa15ce031d20d81c2f5633dabe280887d7bf777ee79396db6fb31664736f6c63430008120033000000000000000000000000f39fd6e51aad88f6f4ce6ab8827279cfffb9226600000000000000000000000070997970c51812dc3a010c7d01b50e0d17dc79c800000000000000000000000000000000000000000000000000000000000000000000000000000000000000000000000000000000000000000000000000000000000000000000000000000000000000000000000000000000000000000000000000000000000000000000000000000000000000000000000000000000000027100000000000000000000000000000000000000000000000000000000000004e200000000000000000000000000000000000000000000000000000000000000001",
        "nonce": "0x183c",
        "chainId": "0x1"
      },
      "additionalContracts": [],
      "isFixedGasLimit": false
    },
    {
      "hash": "0x0e05beb0af070207f4b8a949510c049292927bff34ade93b0bb62b8e8b90c56f",
      "transactionType": "CALL",
      "contractName": null,
      "contractAddress": "0x770d0d1fb036483ed4abb6d53c1c88fb277d812f",
      "function": null,
      "arguments": null,
      "transaction": {
        "from": "0xf39fd6e51aad88f6f4ce6ab8827279cfffb92266",
        "to": "0x770d0d1fb036483ed4abb6d53c1c88fb277d812f",
        "gas": "0x5fc87",
        "value": "0x0",
        "input": "0xb4aeee77000000000000000000000000a0b86991c6218b36c1d19d4a2e9eb0ce3606eb4800000000000000000000000000000000000000000000000000000000000000a000000000000000000000000000000000000000000000000000000000000000e0000000000000000000000000f39fd6e51aad88f6f4ce6ab8827279cfffb9226600000000000000000000000000000000000000000000000000000000000d2f000000000000000000000000000000000000000000000000000000000000000009417263686520555344000000000000000000000000000000000000000000000000000000000000000000000000000000000000000000000000000000000000056172555344000000000000000000000000000000000000000000000000000000",
        "nonce": "0x183d",
        "chainId": "0x1"
      },
      "additionalContracts": [
        {
          "transactionType": "CREATE2",
          "contractName": null,
          "address": "0x8d8600693aa6b71a42744b1e5864adb6537658de",
          "initCode": "0x602d3d8160093d39f3363d3d373d3d3d363d73d8063123bba3b480569244ae66bfe72b6c84b00d5af43d82803e903d91602b57fd5bf3"
        }
      ],
      "isFixedGasLimit": false
    },
    {
      "hash": "0x14a5c795245f10dbdc3ae58fef58795879e8a7b1bf77a4c52d269bb0128c6288",
      "transactionType": "CALL",
      "contractName": null,
      "contractAddress": "0x8d8600693aa6b71a42744b1e5864adb6537658de",
      "function": "set_role(address,uint256)",
      "arguments": [
        "0xf39Fd6e51aad88F6F4ce6aB8827279cffFb92266",
        "16383"
      ],
      "transaction": {
        "from": "0xf39fd6e51aad88f6f4ce6ab8827279cfffb92266",
        "to": "0x8d8600693aa6b71a42744b1e5864adb6537658de",
        "gas": "0x120e6",
        "value": "0x0",
        "input": "0x2cf7fd85000000000000000000000000f39fd6e51aad88f6f4ce6ab8827279cfffb922660000000000000000000000000000000000000000000000000000000000003fff",
        "nonce": "0x183e",
        "chainId": "0x1"
      },
      "additionalContracts": [],
      "isFixedGasLimit": false
    },
    {
      "hash": "0x87b047a2f47ef8c33e5da013fed5f8dc1beaeb8c8a8c08eac626506dde4476dd",
      "transactionType": "CALL",
      "contractName": null,
      "contractAddress": "0x8d8600693aa6b71a42744b1e5864adb6537658de",
      "function": "set_accountant(address)",
      "arguments": [
        "0x29ba83fE2dB1039Ef171DD40c8E1f0106eCC171A"
      ],
      "transaction": {
        "from": "0xf39fd6e51aad88f6f4ce6ab8827279cfffb92266",
        "to": "0x8d8600693aa6b71a42744b1e5864adb6537658de",
        "gas": "0x10cb0",
        "value": "0x0",
        "input": "0x71da8a8d00000000000000000000000029ba83fe2db1039ef171dd40c8e1f0106ecc171a",
        "nonce": "0x183f",
        "chainId": "0x1"
      },
      "additionalContracts": [],
      "isFixedGasLimit": false
    },
    {
      "hash": "0x6a5f73d088eda4c38cda5561a2dfca80add8048bc794918bd8e1fc5a480de6ea",
      "transactionType": "CALL",
      "contractName": "HealthCheckAccountant",
      "contractAddress": "0x29ba83fe2db1039ef171dd40c8e1f0106ecc171a",
      "function": "addVault(address)",
      "arguments": [
        "0x8d8600693AA6B71A42744B1e5864adb6537658DE"
      ],
      "transaction": {
        "from": "0xf39fd6e51aad88f6f4ce6ab8827279cfffb92266",
        "to": "0x29ba83fe2db1039ef171dd40c8e1f0106ecc171a",
        "gas": "0x1024b",
        "value": "0x0",
        "input": "0x256b5a020000000000000000000000008d8600693aa6b71a42744b1e5864adb6537658de",
        "nonce": "0x1840",
        "chainId": "0x1"
      },
      "additionalContracts": [],
      "isFixedGasLimit": false
    },
    {
      "hash": "0x3d6f75cfc3d95fb0107bed062c6d363c2b285e6d17f4d99805644950cc9cefe7",
      "transactionType": "CALL",
      "contractName": null,
      "contractAddress": "0x8d8600693aa6b71a42744b1e5864adb6537658de",
      "function": "set_deposit_limit(uint256)",
      "arguments": [
        "50000000000000"
      ],
      "transaction": {
        "from": "0xf39fd6e51aad88f6f4ce6ab8827279cfffb92266",
        "to": "0x8d8600693aa6b71a42744b1e5864adb6537658de",
        "gas": "0x13398",
        "value": "0x0",
        "input": "0x6fe01d1e00000000000000000000000000000000000000000000000000002d79883d2000",
        "nonce": "0x1841",
        "chainId": "0x1"
      },
      "additionalContracts": [],
      "isFixedGasLimit": false
    },
    {
      "hash": "0x78df465dc2ebd28facb29773877d48641be25f06d4aba4ae6d537f945c63b228",
      "transactionType": "CALL",
      "contractName": null,
      "contractAddress": "0x8d8600693aa6b71a42744b1e5864adb6537658de",
      "function": "add_strategy(address)",
      "arguments": [
        "0xBe53A109B494E5c9f97b9Cd39Fe969BE68BF6204"
      ],
      "transaction": {
        "from": "0xf39fd6e51aad88f6f4ce6ab8827279cfffb92266",
        "to": "0x8d8600693aa6b71a42744b1e5864adb6537658de",
        "gas": "0x2f91c",
        "value": "0x0",
        "input": "0xde7aeb41000000000000000000000000be53a109b494e5c9f97b9cd39fe969be68bf6204",
        "nonce": "0x1842",
        "chainId": "0x1"
      },
      "additionalContracts": [],
      "isFixedGasLimit": false
    },
    {
      "hash": "0xffa4322eaf6c1ae858e91b321510407cd7d58f0edd27c729bdce4e3c0925577d",
      "transactionType": "CALL",
      "contractName": null,
      "contractAddress": "0x8d8600693aa6b71a42744b1e5864adb6537658de",
      "function": "update_max_debt_for_strategy(address,uint256)",
      "arguments": [
        "0xBe53A109B494E5c9f97b9Cd39Fe969BE68BF6204",
        "115792089237316195423570985008687907853269984665640564039457584007913129639935"
      ],
      "transaction": {
        "from": "0xf39fd6e51aad88f6f4ce6ab8827279cfffb92266",
        "to": "0x8d8600693aa6b71a42744b1e5864adb6537658de",
        "gas": "0x13380",
        "value": "0x0",
        "input": "0xb9ddcd68000000000000000000000000be53a109b494e5c9f97b9cd39fe969be68bf6204ffffffffffffffffffffffffffffffffffffffffffffffffffffffffffffffff",
        "nonce": "0x1843",
        "chainId": "0x1"
      },
      "additionalContracts": [],
      "isFixedGasLimit": false
    },
    {
      "hash": "0xe13f4ca70312d734cafc1ed282cf1c382ee51bef909324fd16a6829e15e508e6",
      "transactionType": "CALL",
      "contractName": null,
      "contractAddress": "0x8d8600693aa6b71a42744b1e5864adb6537658de",
      "function": "set_role(address,uint256)",
      "arguments": [
        "0x70997970C51812dc3A010C7d01b50e0d17dc79C8",
        "16383"
      ],
      "transaction": {
        "from": "0xf39fd6e51aad88f6f4ce6ab8827279cfffb92266",
        "to": "0x8d8600693aa6b71a42744b1e5864adb6537658de",
        "gas": "0x120e6",
        "value": "0x0",
        "input": "0x2cf7fd8500000000000000000000000070997970c51812dc3a010c7d01b50e0d17dc79c80000000000000000000000000000000000000000000000000000000000003fff",
        "nonce": "0x1844",
        "chainId": "0x1"
      },
      "additionalContracts": [],
      "isFixedGasLimit": false
    },
    {
      "hash": "0x3cda38fc6149c182250c1ac276f94bd855c71591c322e8e64799a5a4b6a2f9e6",
      "transactionType": "CALL",
      "contractName": null,
      "contractAddress": "0x8d8600693aa6b71a42744b1e5864adb6537658de",
      "function": "transfer_role_manager(address)",
      "arguments": [
        "0x70997970C51812dc3A010C7d01b50e0d17dc79C8"
      ],
      "transaction": {
        "from": "0xf39fd6e51aad88f6f4ce6ab8827279cfffb92266",
        "to": "0x8d8600693aa6b71a42744b1e5864adb6537658de",
        "gas": "0x10dc1",
        "value": "0x0",
        "input": "0xef54cefd00000000000000000000000070997970c51812dc3a010c7d01b50e0d17dc79c8",
        "nonce": "0x1845",
        "chainId": "0x1"
      },
      "additionalContracts": [],
      "isFixedGasLimit": false
    },
    {
      "hash": "0x16c6cccfa6a43291fe77b5a33b43cfa1e4efa6e5fcf65bebefd9724dbb04a5d4",
      "transactionType": "CALL",
      "contractName": "HealthCheckAccountant",
      "contractAddress": "0x29ba83fe2db1039ef171dd40c8e1f0106ecc171a",
      "function": "setFutureFeeManager(address)",
      "arguments": [
        "0x70997970C51812dc3A010C7d01b50e0d17dc79C8"
      ],
      "transaction": {
        "from": "0xf39fd6e51aad88f6f4ce6ab8827279cfffb92266",
        "to": "0x29ba83fe2db1039ef171dd40c8e1f0106ecc171a",
        "gas": "0x10e1c",
        "value": "0x0",
        "input": "0x9b3b695500000000000000000000000070997970c51812dc3a010c7d01b50e0d17dc79c8",
        "nonce": "0x1846",
        "chainId": "0x1"
      },
      "additionalContracts": [],
      "isFixedGasLimit": false
    }
  ],
  "receipts": [
    {
      "status": "0x1",
      "cumulativeGasUsed": "0x1f9256",
      "logs": [
        {
          "address": "0x29ba83fe2db1039ef171dd40c8e1f0106ecc171a",
          "topics": [
            "0xf3ff5bcf8ed3012f7176c6f818fefe02724b1948c98c25f8ff0339fc74c11b8c"
          ],
          "data": "0x00000000000000000000000000000000000000000000000000000000000000000000000000000000000000000000000000000000000000000000000000000000000000000000000000000000000000000000000000000000000000000000000000000000000000000000000000000000000000000000000000000000000027100000000000000000000000000000000000000000000000000000000000004e200000000000000000000000000000000000000000000000000000000000000001",
          "blockHash": "0xc7727b651179becaf240b54c74a60841a9206e10aa18da8bd326598148bebfe6",
          "blockNumber": "0x17b48c8",
          "blockTimestamp": "0x69da4c58",
          "transactionHash": "0x167ee5e366e12f9809779b66ad851ac36f80952a47b535c3bab7fea7ed9bf020",
          "transactionIndex": "0x0",
          "logIndex": "0x0",
          "removed": false
        }
      ],
      "logsBloom": "0x00000000000200000000000000000000000000000000000000000000000000000000200800000000000000000000000000000000000000000000000000000000000000000000000000000000000000000000000002000000000000100000000000000000000000000000000000000000000000000000000000000000000000000000000000000000000000100000000000000000000000000000000000000000000000000000000000000000000000000000000000000000000000000000000000000000000000000000000000000000000000000000000000000000000000000000000000000000000000000000000000000000000000000000000000000000",
      "type": "0x2",
      "transactionHash": "0x167ee5e366e12f9809779b66ad851ac36f80952a47b535c3bab7fea7ed9bf020",
      "transactionIndex": "0x0",
      "blockHash": "0xc7727b651179becaf240b54c74a60841a9206e10aa18da8bd326598148bebfe6",
      "blockNumber": "0x17b48c8",
      "gasUsed": "0x1f9256",
      "effectiveGasPrice": "0x4c74695",
      "blobGasPrice": "0x3d1205c",
      "from": "0xf39fd6e51aad88f6f4ce6ab8827279cfffb92266",
      "to": null,
      "contractAddress": "0x29ba83fe2db1039ef171dd40c8e1f0106ecc171a"
    },
    {
      "status": "0x1",
      "cumulativeGasUsed": "0x45586",
      "logs": [
        {
          "address": "0x770d0d1fb036483ed4abb6d53c1c88fb277d812f",
          "topics": [
            "0x4241302c393c713e690702c4a45a57e93cef59aa8c6e2358495853b3420551d8",
            "0x0000000000000000000000008d8600693aa6b71a42744b1e5864adb6537658de",
            "0x000000000000000000000000a0b86991c6218b36c1d19d4a2e9eb0ce3606eb48"
          ],
          "data": "0x",
          "blockHash": "0xfa26e3d5734d7a1a08d3e8bcc742d7799caa41a662319e75705eae28f1167743",
          "blockNumber": "0x17b48c9",
          "blockTimestamp": "0x69da4c58",
          "transactionHash": "0x0e05beb0af070207f4b8a949510c049292927bff34ade93b0bb62b8e8b90c56f",
          "transactionIndex": "0x0",
          "logIndex": "0x0",
          "removed": false
        }
      ],
      "logsBloom": "0x00000000040000000000000000000000000000000000000000200000000000000000000000000000000002000000000000000000000000000000000000000000000020000000000000000000000000000000000000010000000000000000000000000000000000000000000000000000000000000000000100000000000000000000000000000000000200000000000200000000000000000000000000000000000000000000000000000000000000000000000000000000000000000000000000000200000000000000000000000000000000000000000200000000000000000000000000020000000000000000000004000000000000000000000000000000",
      "type": "0x2",
      "transactionHash": "0x0e05beb0af070207f4b8a949510c049292927bff34ade93b0bb62b8e8b90c56f",
      "transactionIndex": "0x0",
      "blockHash": "0xfa26e3d5734d7a1a08d3e8bcc742d7799caa41a662319e75705eae28f1167743",
      "blockNumber": "0x17b48c9",
      "gasUsed": "0x45586",
      "effectiveGasPrice": "0x43ab029",
      "blobGasPrice": "0x190",
      "from": "0xf39fd6e51aad88f6f4ce6ab8827279cfffb92266",
      "to": "0x770d0d1fb036483ed4abb6d53c1c88fb277d812f",
      "contractAddress": null
    },
    {
      "status": "0x1",
      "cumulativeGasUsed": "0xc58a",
      "logs": [
        {
          "address": "0x8d8600693aa6b71a42744b1e5864adb6537658de",
          "topics": [
            "0x78557646b1d8efa2cd49740d66df5aca39eb610ca8ca0e1ccac08979b6b2c46e",
            "0x000000000000000000000000f39fd6e51aad88f6f4ce6ab8827279cfffb92266",
            "0x0000000000000000000000000000000000000000000000000000000000003fff"
          ],
          "data": "0x",
          "blockHash": "0x714d372237328fed7cf683294b0df23ea39dc69db5d0d49aba4a910a5240d004",
          "blockNumber": "0x17b48ca",
          "blockTimestamp": "0x69da4c58",
          "transactionHash": "0x14a5c795245f10dbdc3ae58fef58795879e8a7b1bf77a4c52d269bb0128c6288",
          "transactionIndex": "0x0",
          "logIndex": "0x0",
          "removed": false
        }
      ],
      "logsBloom": "0x00000000000000000000000000000000000000000000000000000000001000000000000000000000000000000000000000000000000000000000000000000000000000000020000000000000000000000000000000000200000040000000000000000000000000000000000100000000000080000000000000000000000000000000000000000000000000000000000000000000000000000000000000000000000000000000000000000040000000000000000000000000000000000000000000000000000000200000000000000000000000002102000000000000000000000000000000000000000000010000000000000000000000000000000000000000",
      "type": "0x2",
      "transactionHash": "0x14a5c795245f10dbdc3ae58fef58795879e8a7b1bf77a4c52d269bb0128c6288",
      "transactionIndex": "0x0",
      "blockHash": "0x714d372237328fed7cf683294b0df23ea39dc69db5d0d49aba4a910a5240d004",
      "blockNumber": "0x17b48ca",
      "gasUsed": "0xc58a",
      "effectiveGasPrice": "0x3b685d4",
      "blobGasPrice": "0x7",
      "from": "0xf39fd6e51aad88f6f4ce6ab8827279cfffb92266",
      "to": "0x8d8600693aa6b71a42744b1e5864adb6537658de",
      "contractAddress": null
    },
    {
      "status": "0x1",
      "cumulativeGasUsed": "0xc287",
      "logs": [
        {
          "address": "0x8d8600693aa6b71a42744b1e5864adb6537658de",
          "topics": [
            "0x28709a2dab2a5d5e8688e96159011151c51644ab21839a8a45b449634d7c8b2b",
            "0x00000000000000000000000029ba83fe2db1039ef171dd40c8e1f0106ecc171a"
          ],
          "data": "0x",
          "blockHash": "0xe61b83f1da68953f36fd89d7f81c99758cd161ffd5944a597b350b9cfcdb963f",
          "blockNumber": "0x17b48cb",
          "blockTimestamp": "0x69da4c58",
          "transactionHash": "0x87b047a2f47ef8c33e5da013fed5f8dc1beaeb8c8a8c08eac626506dde4476dd",
          "transactionIndex": "0x0",
          "logIndex": "0x0",
          "removed": false
        }
      ],
      "logsBloom": "0x00000000000000000000000000001000000000000000800000000000000000000000000000000000000000000000000000000000000000000000000000000000000000000020000000000000000000000000000000000200000000000000000000000000000000000000000000000080000080000000000000000000000000000000000000000000000000000000000000040000000000000000000000000000000000000000000000000000000000000000000000000000000000000000000000000000000000000000000000000000000000800000000000000004000000000000000000000000000000000000000000000000000000000000000000000000",
      "type": "0x2",
      "transactionHash": "0x87b047a2f47ef8c33e5da013fed5f8dc1beaeb8c8a8c08eac626506dde4476dd",
      "transactionIndex": "0x0",
      "blockHash": "0xe61b83f1da68953f36fd89d7f81c99758cd161ffd5944a597b350b9cfcdb963f",
      "blockNumber": "0x17b48cb",
      "gasUsed": "0xc287",
      "effectiveGasPrice": "0x341cfd5",
      "blobGasPrice": "0x1",
      "from": "0xf39fd6e51aad88f6f4ce6ab8827279cfffb92266",
      "to": "0x8d8600693aa6b71a42744b1e5864adb6537658de",
      "contractAddress": null
    },
    {
      "status": "0x1",
      "cumulativeGasUsed": "0xbb00",
      "logs": [
        {
          "address": "0x29ba83fe2db1039ef171dd40c8e1f0106ecc171a",
          "topics": [
            "0xce96c4db32686d3f0011df1abea0ab6c5794b848868dcbece79961fef7e8198d",
            "0x0000000000000000000000008d8600693aa6b71a42744b1e5864adb6537658de"
          ],
          "data": "0x0000000000000000000000000000000000000000000000000000000000000001",
          "blockHash": "0xd7f4b7a525db1bec240813e6d337b0224dd177020f3fe315c1b8c6faaba068f7",
          "blockNumber": "0x17b48cc",
          "blockTimestamp": "0x69da4c58",
          "transactionHash": "0x6a5f73d088eda4c38cda5561a2dfca80add8048bc794918bd8e1fc5a480de6ea",
          "transactionIndex": "0x0",
          "logIndex": "0x0",
          "removed": false
        }
      ],
      "logsBloom": "0x00000000000000000200000000000000000000000000000000000000000000000000000800000000000000000000000000000000000000000000000000000000000000000000000000000000000000000000000002000000000000000000000000000000000000000000000000000000000000008000000100000000000000000000000000000000000000100000000000004000000000000000000000000000000000000000000000000000000000000000000000000000000000000000000000000200000000000000000000000000000000000000000200000000000000000000000000000000000000000000000000000000000000000000000000000000",
      "type": "0x2",
      "transactionHash": "0x6a5f73d088eda4c38cda5561a2dfca80add8048bc794918bd8e1fc5a480de6ea",
      "transactionIndex": "0x0",
      "blockHash": "0xd7f4b7a525db1bec240813e6d337b0224dd177020f3fe315c1b8c6faaba068f7",
      "blockNumber": "0x17b48cc",
      "gasUsed": "0xbb00",
      "effectiveGasPrice": "0x2dba99e",
      "blobGasPrice": "0x1",
      "from": "0xf39fd6e51aad88f6f4ce6ab8827279cfffb92266",
      "to": "0x29ba83fe2db1039ef171dd40c8e1f0106ecc171a",
      "contractAddress": null
    },
    {
      "status": "0x1",
      "cumulativeGasUsed": "0xd253",
      "logs": [
        {
          "address": "0x8d8600693aa6b71a42744b1e5864adb6537658de",
          "topics": [
            "0xae565aab888bca5e19e25a13db7b0c9144305bf55cb0f3f4d724f730e5acdd62"
          ],
          "data": "0x00000000000000000000000000000000000000000000000000002d79883d2000",
          "blockHash": "0xd7b5e5d1be0c29813e0f0df87b736447b7034a1459b055de72e0a4a0403104f0",
          "blockNumber": "0x17b48cd",
          "blockTimestamp": "0x69da4c58",
          "transactionHash": "0x3d6f75cfc3d95fb0107bed062c6d363c2b285e6d17f4d99805644950cc9cefe7",
          "transactionIndex": "0x0",
          "logIndex": "0x0",
          "removed": false
        }
      ],
      "logsBloom": "0x00000000000000000000000000000000000000000000000000001000000000000000000000000000000000000000000000000000000000000000000000000000000000000020000000000000000000000000000000000200000000000000000000000000000000000000000000000000000080040000000000000800000000000000000000000000000000000000000000000000000000000000000000000000000000000000000000000000000000000000000000000000000000000000000000000000000000000000000000000000000000000000000000000000000000000000000000000000000000000000000000000000000000000000000000000000",
      "type": "0x2",
      "transactionHash": "0x3d6f75cfc3d95fb0107bed062c6d363c2b285e6d17f4d99805644950cc9cefe7",
      "transactionIndex": "0x0",
      "blockHash": "0xd7b5e5d1be0c29813e0f0df87b736447b7034a1459b055de72e0a4a0403104f0",
      "blockNumber": "0x17b48cd",
      "gasUsed": "0xd253",
      "effectiveGasPrice": "0x2824148",
      "blobGasPrice": "0x1",
      "from": "0xf39fd6e51aad88f6f4ce6ab8827279cfffb92266",
      "to": "0x8d8600693aa6b71a42744b1e5864adb6537658de",
      "contractAddress": null
    },
    {
      "status": "0x1",
      "cumulativeGasUsed": "0x2086b",
      "logs": [
        {
          "address": "0x8d8600693aa6b71a42744b1e5864adb6537658de",
          "topics": [
            "0xde8ff765a5c5dad48d27bc9faa99836fb81f3b07c9dc62cfe005475d6b83a2ca",
            "0x000000000000000000000000be53a109b494e5c9f97b9cd39fe969be68bf6204",
            "0x0000000000000000000000000000000000000000000000000000000000000001"
          ],
          "data": "0x",
          "blockHash": "0x86540e332c3b5c43e34e1e73e7afcd9afb0e2387111f48a2bd531f6b3e164da7",
          "blockNumber": "0x17b48ce",
          "blockTimestamp": "0x69da4c58",
          "transactionHash": "0x78df465dc2ebd28facb29773877d48641be25f06d4aba4ae6d537f945c63b228",
          "transactionIndex": "0x0",
          "logIndex": "0x0",
          "removed": false
        }
      ],
      "logsBloom": "0x00000000000000002000000000000000000000000000000000004000000000000000000000000000000000000000000000000000000000000001000000040000000000000020000000000000000000000000000000040200000000000000000000000000000000000000100000000000000080000000000000000000000000000000000000000000000000000000000000000001000000000000000000000000000000000000000000000000000000000000000000000000000000000000000000000000000000000000000000000000000000000000000000000000000040000000000000100000000000000000000000000000000000000000000000000000",
      "type": "0x2",
      "transactionHash": "0x78df465dc2ebd28facb29773877d48641be25f06d4aba4ae6d537f945c63b228",
      "transactionIndex": "0x0",
      "blockHash": "0x86540e332c3b5c43e34e1e73e7afcd9afb0e2387111f48a2bd531f6b3e164da7",
      "blockNumber": "0x17b48ce",
      "gasUsed": "0x2086b",
      "effectiveGasPrice": "0x234056a",
      "blobGasPrice": "0x1",
      "from": "0xf39fd6e51aad88f6f4ce6ab8827279cfffb92266",
      "to": "0x8d8600693aa6b71a42744b1e5864adb6537658de",
      "contractAddress": null
    },
    {
      "status": "0x1",
      "cumulativeGasUsed": "0xd242",
      "logs": [
        {
          "address": "0x8d8600693aa6b71a42744b1e5864adb6537658de",
          "topics": [
            "0xb3eef2123fec1523a6bbc90aceb203000154c1a4974335fe06b544c7534d4b89",
            "0x000000000000000000000000f39fd6e51aad88f6f4ce6ab8827279cfffb92266",
            "0x000000000000000000000000be53a109b494e5c9f97b9cd39fe969be68bf6204"
          ],
          "data": "0xffffffffffffffffffffffffffffffffffffffffffffffffffffffffffffffff",
          "blockHash": "0x800533dd31ccb4e96ce3678fa337c4fe23b1b6cc636cf9e0e5e3e0e40fc19165",
          "blockNumber": "0x17b48cf",
          "blockTimestamp": "0x69da4c58",
          "transactionHash": "0xffa4322eaf6c1ae858e91b321510407cd7d58f0edd27c729bdce4e3c0925577d",
          "transactionIndex": "0x0",
          "logIndex": "0x0",
          "removed": false
        }
      ],
      "logsBloom": "0x00000000000000000000000400000000000000000000000000000000000000000000000000000000000000000000000000000000000000000001000000000000000000000020000000000000000000000000000000000200000000000000000000000000000000000000100100000000000080000000000100000000000000000000000000000010000000000000000000000000000000000000000000000000000000000000000000000000000000000000000000000000000000000000000000000000000000200000000000000000000000002000000000000000000000000000000000100000000000000000000000000000000000000000000000000000",
      "type": "0x2",
      "transactionHash": "0xffa4322eaf6c1ae858e91b321510407cd7d58f0edd27c729bdce4e3c0925577d",
      "transactionIndex": "0x0",
      "blockHash": "0x800533dd31ccb4e96ce3678fa337c4fe23b1b6cc636cf9e0e5e3e0e40fc19165",
      "blockNumber": "0x17b48cf",
      "gasUsed": "0xd242",
      "effectiveGasPrice": "0x1efbb01",
      "blobGasPrice": "0x1",
      "from": "0xf39fd6e51aad88f6f4ce6ab8827279cfffb92266",
      "to": "0x8d8600693aa6b71a42744b1e5864adb6537658de",
      "contractAddress": null
    },
    {
      "status": "0x1",
      "cumulativeGasUsed": "0xc58a",
      "logs": [
        {
          "address": "0x8d8600693aa6b71a42744b1e5864adb6537658de",
          "topics": [
            "0x78557646b1d8efa2cd49740d66df5aca39eb610ca8ca0e1ccac08979b6b2c46e",
            "0x00000000000000000000000070997970c51812dc3a010c7d01b50e0d17dc79c8",
            "0x0000000000000000000000000000000000000000000000000000000000003fff"
          ],
          "data": "0x",
          "blockHash": "0x7d1e5221fd28f3e1b2fd7e24bf6c76eb71cabdb36176cc39b68e5be17d08413b",
          "blockNumber": "0x17b48d0",
          "blockTimestamp": "0x69da4c58",
          "transactionHash": "0xe13f4ca70312d734cafc1ed282cf1c382ee51bef909324fd16a6829e15e508e6",
          "transactionIndex": "0x0",
          "logIndex": "0x0",
          "removed": false
        }
      ],
      "logsBloom": "0x00000000000000000002000000000000000000000000000000000000001000000000000000000000000000000000000000000000000000000000000000000000000000000020000000000000000000000000000000000200000040000000000000000800000000000000000000000000000080000000000000000000000000000000000000000000000000000000000000000000000000000000000000000000000000000000000000000040000000000000000000000000000000000000000000000000000000000000000000000000000000000102000000000000000000000000000000000000000000010000000001000000000000000000000000000000",
      "type": "0x2",
      "transactionHash": "0xe13f4ca70312d734cafc1ed282cf1c382ee51bef909324fd16a6829e15e508e6",
      "transactionIndex": "0x0",
      "blockHash": "0x7d1e5221fd28f3e1b2fd7e24bf6c76eb71cabdb36176cc39b68e5be17d08413b",
      "blockNumber": "0x17b48d0",
      "gasUsed": "0xc58a",
      "effectiveGasPrice": "0x1b3c77f",
      "blobGasPrice": "0x1",
      "from": "0xf39fd6e51aad88f6f4ce6ab8827279cfffb92266",
      "to": "0x8d8600693aa6b71a42744b1e5864adb6537658de",
      "contractAddress": null
    },
    {
      "status": "0x1",
      "cumulativeGasUsed": "0xc34d",
      "logs": [
        {
          "address": "0x8d8600693aa6b71a42744b1e5864adb6537658de",
          "topics": [
            "0x364d2f5fdafcc5778c92c031ccf715352535731482158c029793bd034198f571",
            "0x00000000000000000000000070997970c51812dc3a010c7d01b50e0d17dc79c8"
          ],
          "data": "0x",
          "blockHash": "0x42d3e97538d84f2ebd3a4ff36567aca6c30669bdfe1d0e2edeccb283a6b8c996",
          "blockNumber": "0x17b48d1",
          "blockTimestamp": "0x69da4c58",
          "transactionHash": "0x3cda38fc6149c182250c1ac276f94bd855c71591c322e8e64799a5a4b6a2f9e6",
          "transactionIndex": "0x0",
          "logIndex": "0x0",
          "removed": false
        }
      ],
      "logsBloom": "0x00000000000000000002000000000000000000000000000000000000000000000000000000000002000000000000000000000000040000000000000000000000000000000022000000000000000000000000000000000200000000000000000000000800000000000000000000000000000080000000000000000000000000000000000000000000000000000000000000000000000000000000000000000000000000000000000000000000000000000000000000000000000000000000000000000000000000000000000000000000000000000000000000000000000000000000000000000000000000000000000001000000000000000000000000000000",
      "type": "0x2",
      "transactionHash": "0x3cda38fc6149c182250c1ac276f94bd855c71591c322e8e64799a5a4b6a2f9e6",
      "transactionIndex": "0x0",
      "blockHash": "0x42d3e97538d84f2ebd3a4ff36567aca6c30669bdfe1d0e2edeccb283a6b8c996",
      "blockNumber": "0x17b48d1",
      "gasUsed": "0xc34d",
      "effectiveGasPrice": "0x17f4d87",
      "blobGasPrice": "0x1",
      "from": "0xf39fd6e51aad88f6f4ce6ab8827279cfffb92266",
      "to": "0x8d8600693aa6b71a42744b1e5864adb6537658de",
      "contractAddress": null
    },
    {
      "status": "0x1",
      "cumulativeGasUsed": "0xb8b1",
      "logs": [
        {
          "address": "0x29ba83fe2db1039ef171dd40c8e1f0106ecc171a",
          "topics": [
            "0xa839c45565e8a86de41783841928f4acde049c2b7160f0ea4d4698220c5af61b",
            "0x00000000000000000000000070997970c51812dc3a010c7d01b50e0d17dc79c8"
          ],
          "data": "0x",
          "blockHash": "0xfb40eca9d3ee07f4bbf9f207a7368351ead3c24939384e5e6c9000c59eab6ef7",
          "blockNumber": "0x17b48d2",
          "blockTimestamp": "0x69da4c58",
          "transactionHash": "0x16c6cccfa6a43291fe77b5a33b43cfa1e4efa6e5fcf65bebefd9724dbb04a5d4",
          "transactionIndex": "0x0",
          "logIndex": "0x0",
          "removed": false
        }
      ],
      "logsBloom": "0x00000000000000000002020000000000000000000000000000000000000000000000000800000000000000000000000000000000000000000000000000000000000000008000000000000000000000000000000002000000000000000000000000000800000000000000000000000000000000000000000000000000000000000000000000000000000000100000000000000000000000000000000000000000000000000000000000000000000000000000000000000000000000000000000000000000000000000000000000000000000000000000000000000000000000000000000000000000000000000000000001004000000000000000000000000000",
      "type": "0x2",
      "transactionHash": "0x16c6cccfa6a43291fe77b5a33b43cfa1e4efa6e5fcf65bebefd9724dbb04a5d4",
      "transactionIndex": "0x0",
      "blockHash": "0xfb40eca9d3ee07f4bbf9f207a7368351ead3c24939384e5e6c9000c59eab6ef7",
      "blockNumber": "0x17b48d2",
      "gasUsed": "0xb8b1",
      "effectiveGasPrice": "0x1515fbf",
      "blobGasPrice": "0x1",
      "from": "0xf39fd6e51aad88f6f4ce6ab8827279cfffb92266",
      "to": "0x29ba83fe2db1039ef171dd40c8e1f0106ecc171a",
      "contractAddress": null
    }
  ],
  "libraries": [],
  "pending": [],
  "returns": {
    "accountant": {
      "internal_type": "address",
      "value": "0x29ba83fE2dB1039Ef171DD40c8E1f0106eCC171A"
    },
    "vault": {
      "internal_type": "address",
      "value": "0x8d8600693AA6B71A42744B1e5864adb6537658DE"
    }
  },
  "timestamp": 1775914085676,
  "chain": 1,
  "commit": null
}